{
  "contractName": "GovtProposal",
  "abi": [
    {
      "inputs": [
        {
          "internalType": "uint256",
          "name": "",
          "type": "uint256"
        }
      ],
      "name": "proposals",
      "outputs": [
        {
          "internalType": "uint256",
          "name": "id",
          "type": "uint256"
        },
        {
          "internalType": "string",
          "name": "name",
          "type": "string"
        },
        {
          "internalType": "uint256",
          "name": "votes",
          "type": "uint256"
        }
      ],
      "stateMutability": "view",
      "type": "function",
      "constant": true
    },
    {
      "inputs": [],
      "name": "proposalsCount",
      "outputs": [
        {
          "internalType": "uint256",
          "name": "",
          "type": "uint256"
        }
      ],
      "stateMutability": "view",
      "type": "function",
      "constant": true
    },
    {
      "inputs": [],
      "name": "getproposalsCount",
      "outputs": [
        {
          "internalType": "uint256",
          "name": "",
          "type": "uint256"
        }
      ],
      "stateMutability": "view",
      "type": "function",
      "constant": true
    },
    {
      "inputs": [
        {
          "internalType": "string",
          "name": "_name",
          "type": "string"
        }
      ],
      "name": "submiProposal",
      "outputs": [],
      "stateMutability": "nonpayable",
      "type": "function"
    },
    {
      "inputs": [
        {
          "internalType": "uint256",
          "name": "_proposalId",
          "type": "uint256"
        }
      ],
      "name": "voteProposal",
      "outputs": [],
      "stateMutability": "nonpayable",
      "type": "function"
    }
  ],
  "bytecode": "0x608060405234801561001057600080fd5b506107c9806100206000396000f3fe608060405234801561001057600080fd5b50600436106100575760003560e01c8063013cf08b1461005c5780630a9f46ad1461008e5780630ac60800146100ac578063807896d5146100ca578063b56f5b7f146100e6575b600080fd5b610076600480360381019061007191906104aa565b610102565b60405161008593929190610536565b60405180910390f35b6100966101b4565b6040516100a3919061051b565b60405180910390f35b6100b46101ba565b6040516100c1919061051b565b60405180910390f35b6100e460048036038101906100df91906104aa565b6101c4565b005b61010060048036038101906100fb9190610469565b6102bb565b005b600260205280600052604060002060009150905080600001549080600101805461012b90610632565b80601f016020809104026020016040519081016040528092919081815260200182805461015790610632565b80156101a45780601f10610179576101008083540402835291602001916101a4565b820191906000526020600020905b81548152906001019060200180831161018757829003601f168201915b5050505050908060020154905083565b60035481565b6000600354905090565b6000803373ffffffffffffffffffffffffffffffffffffffff1673ffffffffffffffffffffffffffffffffffffffff16815260200190815260200160002060009054906101000a900460ff161561021a57600080fd5b60008111801561022c57506003548111155b61023557600080fd5b60016000803373ffffffffffffffffffffffffffffffffffffffff1673ffffffffffffffffffffffffffffffffffffffff16815260200190815260200160002060006101000a81548160ff0219169083151502179055506002600082815260200190815260200160002060020160008154809291906102b390610695565b919050555050565b6102c4816102c7565b50565b600360008154809291906102da90610695565b9190505550604051806060016040528060035481526020018281526020016000815250600260006003548152602001908152602001600020600082015181600001556020820151816001019080519060200190610338929190610349565b506040820151816002015590505050565b82805461035590610632565b90600052602060002090601f01602090048101928261037757600085556103be565b82601f1061039057805160ff19168380011785556103be565b828001600101855582156103be579182015b828111156103bd5782518255916020019190600101906103a2565b5b5090506103cb91906103cf565b5090565b5b808211156103e85760008160009055506001016103d0565b5090565b60006103ff6103fa84610599565b610574565b90508281526020810184848401111561041757600080fd5b6104228482856105f0565b509392505050565b600082601f83011261043b57600080fd5b813561044b8482602086016103ec565b91505092915050565b6000813590506104638161077c565b92915050565b60006020828403121561047b57600080fd5b600082013567ffffffffffffffff81111561049557600080fd5b6104a18482850161042a565b91505092915050565b6000602082840312156104bc57600080fd5b60006104ca84828501610454565b91505092915050565b60006104de826105ca565b6104e881856105d5565b93506104f88185602086016105ff565b6105018161076b565b840191505092915050565b610515816105e6565b82525050565b6000602082019050610530600083018461050c565b92915050565b600060608201905061054b600083018661050c565b818103602083015261055d81856104d3565b905061056c604083018461050c565b949350505050565b600061057e61058f565b905061058a8282610664565b919050565b6000604051905090565b600067ffffffffffffffff8211156105b4576105b361073c565b5b6105bd8261076b565b9050602081019050919050565b600081519050919050565b600082825260208201905092915050565b6000819050919050565b82818337600083830152505050565b60005b8381101561061d578082015181840152602081019050610602565b8381111561062c576000848401525b50505050565b6000600282049050600182168061064a57607f821691505b6020821081141561065e5761065d61070d565b5b50919050565b61066d8261076b565b810181811067ffffffffffffffff8211171561068c5761068b61073c565b5b80604052505050565b60006106a0826105e6565b91507fffffffffffffffffffffffffffffffffffffffffffffffffffffffffffffffff8214156106d3576106d26106de565b5b600182019050919050565b7f4e487b7100000000000000000000000000000000000000000000000000000000600052601160045260246000fd5b7f4e487b7100000000000000000000000000000000000000000000000000000000600052602260045260246000fd5b7f4e487b7100000000000000000000000000000000000000000000000000000000600052604160045260246000fd5b6000601f19601f8301169050919050565b610785816105e6565b811461079057600080fd5b5056fea2646970667358221220bebf971a63d4a94c67f4f71a630c9425101e6ba41cbe4cc436be75167190428864736f6c63430008040033",
  "immutableReferences": {},
  "source": "// SPDX-License-Identifier: MIT\r\npragma solidity ^0.8.4;\r\n\r\ncontract GovtProposal {\r\n\r\n    mapping(address => bool ) voter;\r\n    \r\n    uint private votes;\r\n     \r\n    struct Proposals{\r\n        uint id;\r\n        string name;\r\n        uint votes;\r\n    }\r\n    mapping (uint => Proposals) public proposals;\r\n    \r\n    uint public proposalsCount;\r\n    \r\n    function getproposalsCount() public view returns(uint){\r\n        return proposalsCount;\r\n    }\r\n    \r\n    function submiProposal(string memory _name) public{\r\n        addProposal(_name);\r\n    }\r\n    \r\n    function addProposal(string memory _name) private{\r\n        proposalsCount ++;\r\n        proposals[proposalsCount] = Proposals(proposalsCount,_name, 0);\r\n    }\r\n    \r\n    function voteProposal(uint _proposalId) public{\r\n        require(!voter[msg.sender]);\r\n        require(_proposalId > 0 && _proposalId <= proposalsCount);\r\n\r\n        voter[msg.sender] = true;\r\n        proposals[_proposalId].votes ++;\r\n    }\r\n\r\n}\r\n",
  "sourcePath": "D:/Blockchain/govtproposal/src/contracts/GovtProposal.sol",
  "compiler": {
    "name": "solc",
    "version": "0.8.4+commit.c7e474f2.Emscripten.clang"
  },
  "schemaVersion": "3.4.1",
  "updatedAt": "2021-07-30T14:25:56.982Z",
  "networkType": "ethereum",
  "devdoc": {
    "kind": "dev",
    "methods": {},
    "version": 1
  },
  "userdoc": {
    "kind": "user",
    "methods": {},
    "version": 1
  }
}