{
  "contractName": "GovtProposal",
  "abi": [
    {
      "inputs": [
        {
          "internalType": "uint256",
          "name": "",
          "type": "uint256"
        }
      ],
      "name": "proposals",
      "outputs": [
        {
          "internalType": "uint256",
          "name": "id",
          "type": "uint256"
        },
        {
          "internalType": "string",
          "name": "name",
          "type": "string"
        },
        {
          "internalType": "uint256",
          "name": "votes",
          "type": "uint256"
        }
      ],
      "stateMutability": "view",
      "type": "function"
    },
    {
      "inputs": [
        {
          "internalType": "string",
          "name": "_name",
          "type": "string"
        }
      ],
      "name": "submiProposal",
      "outputs": [],
      "stateMutability": "nonpayable",
      "type": "function"
    },
    {
      "inputs": [
        {
          "internalType": "uint256",
          "name": "_proposalId",
          "type": "uint256"
        }
      ],
      "name": "voteProposal",
      "outputs": [],
      "stateMutability": "nonpayable",
      "type": "function"
    }
  ],
  "bytecode": "0x608060405234801561001057600080fd5b5061074c806100206000396000f3fe608060405234801561001057600080fd5b50600436106100415760003560e01c8063013cf08b14610046578063807896d514610078578063b56f5b7f14610094575b600080fd5b610060600480360381019061005b9190610448565b6100b0565b60405161006f939291906104b9565b60405180910390f35b610092600480360381019061008d9190610448565b610162565b005b6100ae60048036038101906100a99190610407565b610259565b005b60026020528060005260406000206000915090508060000154908060010180546100d9906105b5565b80601f0160208091040260200160405190810160405280929190818152602001828054610105906105b5565b80156101525780601f1061012757610100808354040283529160200191610152565b820191906000526020600020905b81548152906001019060200180831161013557829003601f168201915b5050505050908060020154905083565b6000803373ffffffffffffffffffffffffffffffffffffffff1673ffffffffffffffffffffffffffffffffffffffff16815260200190815260200160002060009054906101000a900460ff16156101b857600080fd5b6000811180156101ca57506003548111155b6101d357600080fd5b60016000803373ffffffffffffffffffffffffffffffffffffffff1673ffffffffffffffffffffffffffffffffffffffff16815260200190815260200160002060006101000a81548160ff02191690831515021790555060026000828152602001908152602001600020600201600081548092919061025190610618565b919050555050565b61026281610265565b50565b6003600081548092919061027890610618565b91905055506040518060600160405280600354815260200182815260200160008152506002600060035481526020019081526020016000206000820151816000015560208201518160010190805190602001906102d69291906102e7565b506040820151816002015590505050565b8280546102f3906105b5565b90600052602060002090601f016020900481019282610315576000855561035c565b82601f1061032e57805160ff191683800117855561035c565b8280016001018555821561035c579182015b8281111561035b578251825591602001919060010190610340565b5b509050610369919061036d565b5090565b5b8082111561038657600081600090555060010161036e565b5090565b600061039d6103988461051c565b6104f7565b9050828152602081018484840111156103b557600080fd5b6103c0848285610573565b509392505050565b600082601f8301126103d957600080fd5b81356103e984826020860161038a565b91505092915050565b600081359050610401816106ff565b92915050565b60006020828403121561041957600080fd5b600082013567ffffffffffffffff81111561043357600080fd5b61043f848285016103c8565b91505092915050565b60006020828403121561045a57600080fd5b6000610468848285016103f2565b91505092915050565b600061047c8261054d565b6104868185610558565b9350610496818560208601610582565b61049f816106ee565b840191505092915050565b6104b381610569565b82525050565b60006060820190506104ce60008301866104aa565b81810360208301526104e08185610471565b90506104ef60408301846104aa565b949350505050565b6000610501610512565b905061050d82826105e7565b919050565b6000604051905090565b600067ffffffffffffffff821115610537576105366106bf565b5b610540826106ee565b9050602081019050919050565b600081519050919050565b600082825260208201905092915050565b6000819050919050565b82818337600083830152505050565b60005b838110156105a0578082015181840152602081019050610585565b838111156105af576000848401525b50505050565b600060028204905060018216806105cd57607f821691505b602082108114156105e1576105e0610690565b5b50919050565b6105f0826106ee565b810181811067ffffffffffffffff8211171561060f5761060e6106bf565b5b80604052505050565b600061062382610569565b91507fffffffffffffffffffffffffffffffffffffffffffffffffffffffffffffffff82141561065657610655610661565b5b600182019050919050565b7f4e487b7100000000000000000000000000000000000000000000000000000000600052601160045260246000fd5b7f4e487b7100000000000000000000000000000000000000000000000000000000600052602260045260246000fd5b7f4e487b7100000000000000000000000000000000000000000000000000000000600052604160045260246000fd5b6000601f19601f8301169050919050565b61070881610569565b811461071357600080fd5b5056fea26469706673582212201218746ecbf43487b41f5108b9ca80c93741187a5796fbebd23a42bff3c41cb664736f6c63430008040033",
  "immutableReferences": {},
  "source": "// SPDX-License-Identifier: MIT\npragma solidity ^0.8.4;\n\ncontract GovtProposal {\n\n    mapping(address => bool ) voter;\n    \n    uint private votes;\n     \n    struct Proposals{\n        uint id;\n        string name;\n        uint votes;\n    }\n    mapping (uint => Proposals) public proposals;\n    \n    uint internal proposalsCount;\n    \n    function submiProposal(string memory _name) public{\n        addProposal(_name);\n    }\n    \n    function addProposal(string memory _name) private{\n        proposalsCount ++;\n        proposals[proposalsCount] = Proposals(proposalsCount,_name, 0);\n    }\n    \n    function voteProposal(uint _proposalId) public{\n        require(!voter[msg.sender]);\n        require(_proposalId > 0 && _proposalId <= proposalsCount);\n        \n        voter[msg.sender] = true;\n        proposals[_proposalId].votes ++;\n    }\n\n}\n",
  "sourcePath": "D:/Truffle/ProposalsSolidity/src/contracts/GovtProposal.sol",
  "compiler": {
    "name": "solc",
    "version": "0.8.4+commit.c7e474f2.Emscripten.clang"
  },
  "schemaVersion": "3.4.1",
  "updatedAt": "2021-07-30T10:26:26.621Z",
  "devdoc": {
    "kind": "dev",
    "methods": {},
    "version": 1
  },
  "userdoc": {
    "kind": "user",
    "methods": {},
    "version": 1
  }
}